S0190000546865726D616C5F70726F66696C696E672E7372656315
S113000059C0000072C0000070C000006EC0000043
S11300106CC000006AC0000068C0000066C0000038
S113002064C0000062C0000060C000005EC0000048
S11300305CC000005AC0000058C0000056C0000058
S113004054C0000052C0000032C400004EC0000082
S11300504CC000004AC0000048C0000046C0000078
S113006044C0000042C0000040C000003EC0000088
S11300703CC000003AC0000038C0000036C0000098
S113008034C000009EC3000030C000002EC0000039
S11300902CC000002AC0000028C0000026C00000B8
S11300A024C0000022C0000020C000001EC00000C8
S11300B01CC0000011241FBECFEFD8E0DEBFCDBFAF
S11300C011E0A0E0B1E0E6EBFFE002C005900D9284
S11300D0AC36B107D9F722E0ACE6B1E001C01D921D
S11300E0A736B207E1F777D064C78ACFECE7F0E030
S11300F080818F73808387E880937A000895ECE78A
S1130100F0E09081907F908390818F70982B908302
S1130110EAE7F0E080818064808380917A0086FD44
S1130120FCCF8091780090917900089584B1846027
S113013084B981E2809380008BE0809381001092E7
S11301408B0010928A000895AC018436910579F4ED
S113015084E690E090936D0180936C01E0E8F0E018
S113016080818F7D808385B18B7F85B90895892BAC
S113017069F410926D0110926C01E0E8F0E0808166
S11301808F7D808385B1846085B90895E0E8F0E0CF
S11301908081806280838FEF849F9001859F300DE2
S11301A011243695279536952795ABE7B4E1FCD312
S11301B09695879580959095992790938B00809339
S11301C08A0050936D0140936C01089580916C01F5
S11301D090916D0108958ADF60E875E280E090E017
S11301E027D3D0D2A3DF7894812C912C5401412CB5
S11301F0512C3201DAD26B017C01DC01CB01841970
S11302009509A609B7090A97A105B10538F417C0DD
S11302106C2F80918001EAD1CF5F01C0C0E0C8306B
S1130220B8F3809180018F5F809380018A3028F039
S1130230109280012601370102C026013701D7013F
S1130240C60188199909AA09BB09C297A105B10574
S113025018F03BD24601570180916E01813009F4B8
S1130260ECD0A895C7CFAC0130E08FEF9FEF16C05C
S1130270FA01E30FF11D2081822720E00CC080FFEA
S113028007C09695879571E0872770EA972702C083
S1130290969587952F5F283090F33F5F361740F38C
S11302A00895CF93DF9390E0FC01E050FF4F20814D
S11302B021110BC0880F991FFC01E059FE4F80816A
S11302C091816AE070E01FD302C06FEF7FE7C1E263
S11302D0D2E085E0888384E0898382E08A837B831B
S11302E06C8365E0CE01BFDF8D839E838BB1846018
S11302F08BB9C0E007C0EC2FF0E0EF5DFD4F8081CB
S1130300C3D2CF5FC730B8F3E0ECF0E08081806403
S113031080838091C00086FFFCCF8BB18B7F8BB92B
S1130320DF91CF910895CF93DF93C1E2D2E095E0BE
S11303309883806889836A8363E0CE0194DF8B832A
S11303401C828BB184608BB9C0E007C0EC2FF0E055
S1130350EF5DFD4F808198D2CF5FC530B8F3E0ECFC
S1130360F0E08081806480838091C00086FFFCCFB0
S11303708BB18B7F8BB9DF91CF910895CF93DF93AE
S1130380E1E2F2E085E0808384E0818380E182839E
S113039020E0C3E022C0822F90E0FC01E050FF4F38
S11303A0308131110BC0880F991FFC01E059FE4FB9
S11303B0808191816AE070E0A6D202C06FEF7FE78E
S11303C0EC2FF0E0EF5DFD4F7083E1E0EC0FF0E027
S11303D0CE5FEF5DFD4F60832F5F2830E0F26C2F1E
S11303E081E292E040DFE1E0EC0FAC2FB0E0AF5DE2
S11303F0BD4F8C93D2E0DC0FF0E0EF5DFD4F9083B6
S11304008BB184608BB9C0E007C0EC2FF0E0EF5DE6
S1130410FD4F808139D2CF5FCD17B8F3E0ECF0E027
S11304208081806480838091C00086FFFCCF8BB183
S11304308B7F8BB9DF91CF9108950F931F93CF9347
S1130440DF93C0916F0110926E0110926F01C4305E
S113045008F4C7C080914702853009F0C2C08C2FD0
S113046090E0FC01EA5BFD4F008110E0102F0027B3
S1130470FC01EB5BFD4F8081082B6EEF6C0F87E472
S113048092E0F1DE0817190729F08091480263E031
S11304904ADFA7C0809148028430E9F4E7E4F2E03F
S11304A08281838194819581883038F4292F30E0CA
S11304B0280F311D293031052CF08091480262E06B
S11304C032DF8FC0913029F4883008F08AC0E9DE29
S11304D088C054DF86C080914802863009F03FC04E
S11304E0E7E4F2E0228130E0322F22278381282BB7
S11304F0848190E0982F88274581842BAC0121309A
S1130500310541F54536510528F08091480263E0F4
S11305100ADF67C019DE8BB184608BB900E010E09C
S113052007C0F801E95BFD4F8081AED10F5F1F4F1B
S11305308C2F90E008171907A0F3E0ECF0E080811D
S1130540806480838091C00086FFFCCF8BB18B7F59
S11305508BB947C08091480262E0E5DE42C08091D9
S113056048028330D1F5E7E4F2E0828190E0982FED
S113057088272381822B019759F528DEC1E2D2E036
S113058025E0288323E0298322E02A839B838C832C
S113059065E0CE0168DE8D839E838BB184608BB968
S11305A0C0E007C0EC2FF0E0EF5DFD4F80816CD11F
S11305B0CF5FC730B8F3E0ECF0E0808180648083E3
S11305C08091C00086FFFCCF8BB18B7F8BB909C0B3
S11305D08091480262E0A7DE04C08091480261E095
S11305E0A2DEDF91CF911F910F9108958F929F9278
S11305F0AF92BF92CF92DF92EF92FF921F93CF936D
S1130600DF93182FC62F862F7ADD9C0125503109E0
S1130610263F334030F0D0E0C050DF4F81E0888384
S113062048C0D0E0FE01E050FF4F10826C01E12C85
S1130630F12CA6E4B5E0A7019601C5D10F2E8824BC
S11306408A94F3E09F2EA12CB12CF02DA5019401E6
S11306502C193D094E095F0969D1285E33404109CF
S11306605109A8EEB3E0AFD121E831E040E050E019
S11306707FD1BE01660F771FFB01E059FE4F8081D9
S11306809181CC0FDD1FCC0FDD1FCC0FDD1FC60FFA
S1130690D71FC10FD11DCC0FDD1FCF57DE4F68818F
S11306A07981861B970B820F931F918380833983F3
S11306B02883DF91CF911F91FF90EF90DF90CF902F
S11306C0BF90AF909F908F900895EF92FF921F93E9
S11306D0CF93DF93CDB7DEB760970FB6F894DEBF44
S11306E00FBECDBF8BB184608BB98EE591E0D3D0C2
S11306F010E02BC0812F90E0FC01E050FF4F2081DF
S1130700211104C082E691E0C6D01EC0880F991F53
S1130710FC01E059FE4F808191816AE070E0F3D0E2
S11307207F936F9387E691E09F938F93CE01019619
S11307307C019F938F9365D1C701ADD00F900F902B
S11307400F900F900F900F901F5F183098F28BE569
S113075091E0A1D0E0ECF0E080818064808380911E
S1130760C00086FFFCCF8BB18B7F8BB960960FB630
S1130770F894DEBF0FBECDBFDF91CF911F91FF90E4
S1130780EF90089510929000E1E9F0E088E0808312
S113079083EC99E0909399008093980082E0809391
S11307A0710080818360808308952FB7F8946091ED
S11307B041027091420280914302909144022FBF02
S11307C008951F920F920FB60F9211248F939F9347
S11307D0AF93BF938091410290914202A091430252
S11307E0B09144020196A11DB11D809341029093E2
S11307F04202A0934302B0934402809146028823AC
S113080071F0809145028F5F80934502809145028B
S1130810853028F081E080936E0110924602BF91EA
S1130820AF919F918F910F900FBE0F901F901895CD
S1130830DC01CB01880F991FAA1FBB1F880F991FCA
S1130840AA1FBB1F9C01AD01220F331F441F551F5C
S1130850220F331F441F551F60E074E284EF90E0C1
S113086065D0215031093093C5002093C40088E934
S11308708093C10086E08093C2008AB184608AB903
S11308808BB18B7F8BB908959091C00095FFFCCFFD
S11308908093C6000895CF93DF93EC0102C02196A4
S11308A0F3DF88818111FBCFDF91CF9108951F92EF
S11308B00F920FB60F9211248F939F93EF93FF9390
S11308C09091C60080916F01803280F4E0916F01B5
S11308D081E08E0F80936F01F0E0E95BFD4F908320
S11308E01092450281E08093460204C010926F0189
S11308F010924602FF91EF919F918F910F900FBE3E
S11309000F901F90189597FB072E16F4009406D0AD
S113091077FD08D062D007FC05D03EF49095819510
S11309209F4F0895709561957F4F0895A1E21A2E07
S1130930AA1BBB1BFD010DC0AA1FBB1FEE1FFF1F7F
S1130940A217B307E407F50720F0A21BB30BE40BCF
S1130950F50B661F771F881F991F1A9469F7609516
S11309607095809590959B01AC01BD01CF010895D0
S1130970052E97FB16F400940FD057FD05D0D6DF53
S113098007FC02D046F408C0509540953095219557
S11309903F4F4F4F5F4F08959095809570956195A7
S11309A07F4F8F4F9F4F0895A29FB001B39FC00107
S11309B0A39F700D811D1124911DB29F700D811D87
S11309C01124911D0895F0DFA59F900DB49F900D03
S11309D0A49F800D911D11240895AA1BBB1B51E1F6
S11309E007C0AA1FBB1FA617B70710F0A61BB70B9B
S11309F0881F991F5A95A9F780959095BC01CD0140
S1130A000895AEE0B0E0E6E0F5E0AAC20D891E89E3
S1130A1086E08C831A8309838FEF9FE79E838D83FF
S1130A20AE01475E5F4F6F89788DCE01019608D085
S1130A30EF81F885E00FF11F10822E96E4E0ACC23E
S1130A40ABE0B0E0E5E2F5E07DC26C017B018A0138
S1130A50FC0117821682838181FFBFC1CE010196FA
S1130A603C01F6019381F70193FD859193FF8191F8
S1130A707F01882309F4ADC1853239F493FD859152
S1130A8093FF81917F01853221F4B60190E0C0D1BA
S1130A90E8CF912C212C312CFFE1F315D8F08B32C7
S1130AA079F038F4803279F08332A1F4232D206177
S1130AB01DC08D3261F0803369F4232D216016C08E
S1130AC0832D8260382EE32DE4603E2E2AC0F32D60
S1130AD0F8601DC037FC2DC020ED280F2A3040F0EF
S1130AE08E32B9F436FC75C1232D2064322E19C020
S1130AF036FE06C08AE0989E200D1124922E11C065
S1130B00EAE02E9E200D1124222EF32DF0623F2EBA
S1130B1008C08C3621F4832D8068382E02C08836B4
S1130B2041F4F70193FD859193FF81917F01811138
S1130B30B3CF982F9F7D9554933028F40C5F1F4FAB
S1130B409FE399830DC0833631F0833771F0833589
S1130B5009F055C020C0F801808189830E5F1F4FC2
S1130B6088248394912C530112C02801F2E04F0E83
S1130B70511CF801A080B18036FE03C0692D70E0DD
S1130B8002C06FEF7FEFC50138D14C018201F32D14
S1130B90FF773F2E15C0280122E0420E511CF801B8
S1130BA0A080B18036FE03C0692D70E002C06FEFF3
S1130BB07FEFC50117D14C01F32DF0683F2E820160
S1130BC033FC19C0822D90E088169906A0F4B60172
S1130BD080E290E01DD12A94F5CFF50137FC859190
S1130BE037FE81915F01B60190E012D121102A9461
S1130BF021E0821A91088114910479F7E1C08436C6
S1130C0011F0893639F5F80137FE07C0608171812A
S1130C10828193810C5F1F4F08C060817181072E10
S1130C20000C880B990B0E5F1F4FF32DFF763F2EA0
S1130C3097FF09C090958095709561957F4F8F4F70
S1130C409F4FF0683F2E2AE030E0A3011DD1882E8B
S1130C50861844C0853731F4232D2F7EB22E2AE026
S1130C6030E025C0932D997FB92E8F36C1F018F44A
S1130C70883579F0AEC0803719F0883721F0A9C0E3
S1130C80E92FE061BE2EB4FE0DC0FB2DF460BF2E33
S1130C9009C034FE0AC0292F2660B22E06C028E0FF
S1130CA030E005C020E130E002C020E132E0F8018C
S1130CB0B7FE07C060817181828193810C5F1F4FF1
S1130CC006C06081718180E090E00E5F1F4FA30138
S1130CD0DBD0882E8618FB2DFF773F2E36FE0DC005
S1130CE0232D2E7FA22E891458F434FE0BC032FC1F
S1130CF009C0832D8E7EA82E05C0B82CA32C03C05A
S1130D00B82C01C0B92CA4FE0FC0FE01E80DF11DE2
S1130D108081803321F49A2D997EA92E09C0A2FEE8
S1130D2006C0B394B39404C08A2D867809F0B394B2
S1130D30A3FC10C0A0FE06C0B21480F4280C922CB0
S1130D409B180DC0B21458F4B60180E290E060D054
S1130D50B394F8CFB21418F42B1802C0982C212C99
S1130D60A4FE0FC0B60180E390E052D0A2FE16C0EC
S1130D70A1FC03C088E790E002C088E590E0B601DA
S1130D800CC08A2D867851F0A1FE02C08BE201C00E
S1130D9080E2A7FC8DE2B60190E03AD0891430F4E9
S1130DA0B60180E390E034D09A94F8CF8A94F301AA
S1130DB0E80DF11D8081B60190E02AD08110F6CFB4
S1130DC0222009F44ECEB60180E290E021D02A948C
S1130DD0F7CFF6018681978102C08FEF9FEF2B96A4
S1130DE0E2E1CCC0FC010590615070400110D8F7DD
S1130DF0809590958E0F9F1F0895FC01615070405F
S1130E0001900110D8F7809590958E0F9F1F08953B
S1130E100F931F93CF93DF93FB01238121FD03C025
S1130E208FEF9FEF2CC022FF16C04681578124818B
S1130E3035814217530744F4A081B1819D012F5F8E
S1130E403F4F318320838C93268137812F5F3F4F1F
S1130E503783268314C08B01EC01FB010084F185E8
S1130E60E02D0995892BE1F6D80116968D919C9178
S1130E701797019617969C938E931697CE01DF9140
S1130E80CF911F910F910895FA01AA27283051F1AB
S1130E90203181F1E8946F936E7F6E5F7F4F8F4FA7
S1130EA09F4FAF4FB1E03ED0B4E03CD0670F781F06
S1130EB0891F9A1FA11D680F791F8A1F911DA11DEB
S1130EC06A0F711D811D911DA11D20D009F4689424
S1130ED03F912AE0269F11243019305D3193DEF6CC
S1130EE0CF010895462F4770405D4193B3E00FD082
S1130EF0C9F7F6CF462F4F70405D4A3318F0495D6D
S1130F0031FD4052419302D0A9F7EACFB4E0A6954F
S1130F109795879577956795BA95C9F70097610571
S1130F20710508959B01AC010A2E069457954795C7
S1130F3037952795BA95C9F7620F731F841F951FBC
S1130F40A01D08952F923F924F925F926F927F92CD
S1130F508F929F92AF92BF92CF92DF92EF92FF92C5
S1130F600F931F93CF93DF93CDB7DEB7CA1BDB0B71
S1130F700FB6F894DEBF0FBECDBF09942A88398816
S1130F8048885F846E847D848C849B84AA84B9841D
S1130F90C884DF80EE80FD800C811B81AA81B98129
S1130FA0CE0FD11D0FB6F894DEBF0FBECDBFED013D
S1090FB00895F894FFCF40
S1130FB6010101010101010153656E736F72202560
S1130FC6643A204552524F522028526177204144B8
S1130FD6433A202575290D0A00532564207C2041B7
S1130FE644433A2575207C20563A2575206D5620B3
S1130FF67C20523A256C75204F686D207C20543A2B
S1131006256C6420287831302043290D0A005420A9
S10F10163A0045525220002564200000DE
S9030000FC
