S0190000546865726D616C5F70726F66696C696E672E7372656315
S113000071C000008EC000008CC000008AC00000D7
S113001088C0000086C0000084C0000082C00000C8
S113002080C000007EC000007CC000007AC00000D8
S113003078C0000076C0000074C0000072C00000E8
S113004070C000003FC300006CC000006AC0000024
S113005068C0000066C0000064C0000062C0000008
S113006060C0000099C300005CC000005AC00000DA
S113007058C0000056C0000054C0000052C0000028
S113008050C000004EC000004CC000004AC0000038
S113009048C0000046C0000044C0000042C0000048
S11300A040C000003EC000003CC000003AC0000058
S11300B038C0000036C0000034C0000032C0000068
S11300C030C000002EC000002CC000002AC0000078
S11300D028C0000026C0000024C0000022C0000088
S11300E020C0000011241FBECFEFD1E2DEBFCDBF80
S11300F000E00CBF12E0A0E0B2E0E8EFF8E000E0BE
S11301000BBF02C007900D92A830B107D9F723E0C6
S1130110A8E0B2E001C01D92A330B207E1F762D0BB
S1130120E9C36ECFECE7F0E080818F73808387E8CA
S113013080937A000895ECE7F0E09081907F9083BB
S113014090818F70982B9083EAE7F0E0808180643F
S1130150808380917A0086FDFCCF80917800909115
S11301607900089584B1806184B983E88093B000F4
S113017084E08093B1001092B3000895AC018436FA
S1130180910579F484E690E0909309028093080243
S1130190E0EBF0E080818F77808385B18F7E85B935
S11301A00895E0EBF0E08081806880838FEF849F86
S11301B09001859F300D1124369527953695279506
S11301C0ABE7B4E16AD39695879580958093B300A5
S11301D05093090240930802089580910802909177
S11301E0090208959FDF60E875E280E090E0A1D203
S11301F04AD2B8DF7894812C912C540157D26B01E8
S11302007C01DC01CB0188199909AA09BB090A9769
S1130210A105B10538F417C06C2F80911C02C4D11C
S1130220CF5F01C0C0E0C830B8F380911C028F5F7B
S113023080931C028A3028F010921C024601570158
S113024002C04601570180910A02813009F4ECD0C2
S1130250A895D4CFAC0130E08FEF9FEF16C0FA0120
S1130260E30FF11D2081822720E00CC080FF07C02E
S11302709695879571E0872770EA972702C096952F
S113028087952F5F283090F33F5F361740F308952A
S1130290CF93DF9390E0FC01E050FE4F20812111C9
S11302A00BC0880F991FFC01E45FFD4F8081918191
S11302B06AE070E0A1D202C06FEF7FE7CDEBD2E03D
S11302C085E0888384E0898382E08A837B836C83EE
S11302D065E0CE01BFDF8D839E838BB184608BB9D3
S11302E0C0E007C0EC2FF0E0E354FD4F80814DD215
S11302F0CF5FC730B8F3E0ECF0E0808180648083A6
S11303008091C00086FFFCCF8BB18B7F8BB9DF91CE
S1130310CF910895CF93DF93CDEBD2E095E098830E
S1130320806889836A8363E0CE0194DF8B831C82B7
S11303308BB184608BB9C0E007C0EC2FF0E0E354CC
S1130340FD4F808122D2CF5FC530B8F3E0ECF0E0FE
S11303508081806480838091C00086FFFCCF8BB154
S11303608B7F8BB9DF91CF910895CF93DF93EDEB22
S1130370F2E085E0808384E0818380E1828320E071
S1130380C3E022C0822F90E0FC01E050FE4F308198
S113039031110BC0880F991FFC01E45FFD4F808170
S11303A091816AE070E028D202C06FEF7FE7EC2F02
S11303B0F0E0E354FD4F7083E1E0EC0FF0E0CE5F3A
S11303C0E354FD4F60832F5F2830E0F26C2F8DEBF8
S11303D092E040DFE1E0EC0FAC2FB0E0A354BD4F5E
S11303E08C93D2E0DC0FF0E0E354FD4F90838BB1AB
S11303F084608BB9C0E007C0EC2FF0E0E354FD4FFC
S11304008081C3D1CF5FCD17B8F3E0ECF0E08081F9
S1130410806480838091C00086FFFCCF8BB18B7F8A
S11304208BB9DF91CF9108950F931F93CF93DF93EF
S1130430C0910B0210920A0210920B02C43008F40D
S1130440AEC08091E302853009F0A9C08C2F90E002
S1130450FC01EE51FD4F008110E0102F0027FC013C
S1130460EF51FD4F8081082B6EEF6C0F83EE92E00D
S1130470F1DE0817190729F08091E40263E04ADFEE
S11304808EC08091E4028430E9F4E3EEF2E08281EC
S1130490838194819581883038F4292F30E0280FA6
S11304A0311D293031052CF08091E40262E032DF05
S11304B076C0913029F4883008F071C0E9DE6FC04D
S11304C054DF6DC08091E402863009F03FC0E3EE52
S11304D0F2E0228130E0322F22278381282B84818D
S11304E090E0982F88274581842BAC012130310579
S11304F041F54536510528F08091E40263E00ADFB6
S11305004EC03CDE8BB184608BB900E010E007C0C4
S1130510F801ED51FD4F808138D10F5F1F4F8C2FB3
S113052090E008171907A0F3E0ECF0E08081806404
S113053080838091C00086FFFCCF8BB18B7F8BB909
S11305402EC08091E40262E0E5DE29C08091E402DD
S1130550833009F5E3EEF2E0828190E0982F88275A
S11305602381822B019791F438DECDEBD2E025E094
S1130570288323E0298322E02A839B838C8365E0FC
S1130580CE0168DE8D839E83F0DE09C08091E40293
S113059062E0C0DE04C08091E40261E0BBDEDF9172
S11305A0CF911F910F9108958F929F92AF92BF9216
S11305B0CF92DF92EF92FF921F93CF93DF93182F86
S11305C0C62F862FB8DD9C0125503109263F3340C4
S11305D030F0D0E0C050DE4F81E0888348C0D0E0E6
S11305E0FE01E050FE4F10826C01E12CF12CA6E4D8
S11305F0B5E0A701960160D10F2E88248A94F3E018
S11306009F2EA12CB12CF02DA50194012C193D098C
S11306104E095F0904D1285E334041095109A8EE0F
S1130620B3E04AD121E831E040E050E01AD1BE0104
S1130630660F771FFB01E45FFD4F80819181CC0F32
S1130640DD1FCC0FDD1FCC0FDD1FC60FD71FC10F61
S1130650D11DCC0FDD1FC35EDD4F68817981861B00
S1130660970B820F931F9183808339832883DF91B3
S1130670CF911F91FF90EF90DF90CF90BF90AF90FC
S11306809F908F90089510928000E1E8F0E088E058
S1130690808383EC99E0909389008093880082E0C2
S11306A080936F0080818360808308952FB7F894CE
S11306B06091DD027091DE028091DF029091E00290
S11306C02FBF08951F920F920FB60F9211248F938C
S11306D09F93AF93BF938091DD029091DE02A0912E
S11306E0DF02B091E0020196A11DB11D8093DD02ED
S11306F09093DE02A093DF02B093E0028091E202C5
S1130700882371F08091E1028F5F8093E1028091F0
S1130710E102853028F081E080930A021092E2021F
S1130720BF91AF919F918F910F900FBE0F901F902B
S11307301895DC01CB01880F991FAA1FBB1F880FD6
S1130740991FAA1FBB1F9C01AD01220F331F441F19
S1130750551F220F331F441F551F60E074E284EFBE
S113076090E05DD0215031093093C5002093C4003E
S113077088E98093C10086E08093C2008AB18460D6
S11307808AB98BB18B7F8BB908959091C00095FF86
S1130790FCCF8093C60008951F920F920FB60F925C
S11307A011240BB60F928F939F93EF93FF93909125
S11307B0C60080910B02803280F4E0910B0281E04C
S11307C08E0F80930B02F0E0ED51FD4F9083109259
S11307D0E10281E08093E20204C010920B021092C5
S11307E0E202FF91EF919F918F910F900BBE0F90BA
S11307F00FBE0F901F90189597FB072E16F40094C8
S113080006D077FD08D062D007FC05D03EF4909561
S113081081959F4F0895709561957F4F0895A1E24A
S11308201A2EAA1BBB1BFD010DC0AA1FBB1FEE1F66
S1130830FF1FA217B307E407F50720F0A21BB30BB1
S1130840E40BF50B661F771F881F991F1A9469F72D
S113085060957095809590959B01AC01BD01CF0189
S11308600895052E97FB16F400940FD057FD05D07C
S1130870D6DF07FC02D046F408C050954095309569
S113088021953F4F4F4F5F4F0895909580957095F8
S113089061957F4F8F4F9F4F0895A29FB001B39FE3
S11308A0C001A39F700D811D1124911DB29F700D75
S11308B0811D1124911D0895F0DFA59F900DB49F13
S11308C0900DA49F800D911D11240895AA1BBB1B9C
S11308D051E107C0AA1FBB1FA617B70710F0A61B3C
S11308E0B70B881F991F5A95A9F780959095BC015D
S10B08F0CD010895F894FFCF37
S10B08F80101010101010101EC
S9030000FC
