S0190000546865726D616C5F70726F66696C696E672E7372656315
S113000071C0000081C000007FC000007DC00000FE
S11300107BC0000079C0000077C0000075C00000FC
S113002073C0000071C000006FC000006DC000000C
S11300306BC0000069C0000067C0000065C000001C
S113004063C00000F6C100005FC000005DC0000096
S11300505BC0000059C0000057C0000055C000003C
S113006053C0000050C200004FC000004DC000004B
S11300704BC0000049C0000047C0000045C000005C
S113008043C0000041C000003FC000003DC000006C
S11300903BC0000039C0000037C0000035C000007C
S11300A033C0000031C000002FC000002DC000008C
S11300B02BC0000029C0000027C0000025C000009C
S11300C023C0000021C000001FC000001DC00000AC
S11300D01BC0000019C0000017C0000015C00000BC
S11300E013C0000011241FBECFEFD1E2DEBFCDBF8D
S11300F000E00CBF23E0A0E0B2E001C01D92AF32EB
S1130100B207E1F743D078C27BCF262F30E0F90164
S1130110EE0FFF1FA901440F551F440F551F440F35
S1130120551F4E0F5F1F46505F4F633031F4F90186
S1130130EE5FFD4F81E080830895F901EE5FFD4F8E
S11301401082F901EE0FFF1FDF01A45FBD4F6D9117
S11301507C911197220F331F220F331F220F331F5D
S1130160E20FF31FE80FF11DEE0FFF1FEF5DFD4FD0
S1130170808191819B01281B390BC901840F951F34
S113018011969C938E9351834083089560E875E2A1
S113019080E090E085D12ED178949FE088E10FB67D
S11301A0F894A895809360000FBE90936000812C12
S11301B0912C540132D16B017C01DC01CB018819F3
S11301C09909AA09BB090A97A105B10538F417C012
S11301D06C2F8091200299DFCF5F01C0C0E0CA304C
S11301E0B8F3809120028F5F809320028A3028F038
S11301F0109220024601570102C046015701809126
S11302000002813009F4C1D0A895D4CFAC0130E00C
S11302108FEF9FEF16C0FA01E30FF11D20818227B3
S113022020E00CC080FF07C09695879571E0872772
S113023070EA972702C0969587952F5F283090F330
S11302403F5F361740F30895CF93DF9390E0FC01AE
S1130250EE5FFD4F208121110BC0880F991FFC0117
S1130260E45FFD4F808191816AE070E07CD102C03F
S11302706FEF7FE7C9EED2E085E0888384E089836D
S113028082E08A837B836C8365E0CE01BFDF8D834C
S11302909E838BB184608BB9C0E007C0EC2FF0E083
S11302A0E751FD4F808128D1CF5FC730B8F3E0EC30
S11302B0F0E08081806480838091C00086FFFCCF61
S11302C08BB18B7F8BB9DF91CF910895CF93DF935F
S11302D0E9EEF2E085E0808384E0818384E1828337
S11302E020E0C3E022C0822F90E0FC01EE5FFD4FCE
S11302F0308131110BC0880F991FFC01E45FFD4F61
S1130300808191816AE070E02ED102C06FEF7FE7B7
S1130310EC2FF0E0E751FD4F7083E1E0EC0FF0E0EB
S1130320CE5FE751FD4F60832F5F2A30E0F26C2FE0
S113033089EE92E06BDFE1E0EC0FAC2FB0E0A75167
S1130340BD4F8C93D2E0DC0FF0E0E751FD4F90837A
S11303508BB184608BB9C0E007C0EC2FF0E0E751AB
S1130360FD4F8081C9D0CF5FCD17B8F3E0ECF0E04A
S11303708081806480838091C00086FFFCCF8BB134
S11303808B7F8BB9DF91CF910895CF93DF936091E9
S113039001021092000210920102643040F1809137
S11303A00F03853021F580911003843001F5862FE9
S11303B090E0FC01E25FFC4FC081D0E0DC2FCC2751
S11303C0FC01E35FFC4F8081C82B62508FE093E017
S11303D01DDFC817D90759F4EFE0F3E08381958155
S11303E0913021F48A3018F42FDF01C06FDFDF91E0
S11303F0CF91089510928000E1E8F0E088E08083D6
S113040083EC99E0909389008093880082E0809344
S11304106F0080818360808308952FB7F894609182
S1130420090370910A0380910B0390910C032FBF71
S113043008951F920F920FB60F9211248F939F93DA
S1130440AF93BF938091090390910A03A0910B038A
S1130450B0910C030196A11DB11D809309039093E3
S11304600A03A0930B03B0930C0380910E0388231B
S113047071F080910D038F5F80930D0380910D03C4
S1130480853028F081E08093000210920E03BF9122
S1130490AF919F918F910F900FBE0F901F90189561
S11304A0DC01CB01880F991FAA1FBB1F880F991F5E
S11304B0AA1FBB1F9C01AD01220F331F441F551FF0
S11304C0220F331F441F551F60E074E284EF90E055
S11304D05DD0215031093093C5002093C40088E9D0
S11304E08093C10086E08093C2008AB184608AB997
S11304F08BB18B7F8BB908959091C00095FFFCCF91
S11305008093C60008951F920F920FB60F92112484
S11305100BB60F928F939F93EF93FF939091C60026
S113052080910102803280F4E091010281E08E0F1B
S113053080930102F0E0E15FFC4F908310920D0381
S113054081E080930E0304C01092010210920E0306
S1130550FF91EF919F918F910F900BBE0F900FBE63
S11305600F901F90189597FB072E16F4009406D051
S113057077FD08D02DD007FC05D03EF490958195E9
S11305809F4F0895709561957F4F0895A1E21A2EAB
S1130590AA1BBB1BFD010DC0AA1FBB1FEE1FFF1F23
S11305A0A217B307E407F50720F0A21BB30BE40B73
S11305B0F50B661F771F881F991F1A9469F76095BA
S11305C07095809590959B01AC01BD01CF01089574
S11305D0AA1BBB1B51E107C0AA1FBB1FA617B70765
S11305E010F0A61BB70B881F991F5A95A9F7809581
S10F05F09095BC01CD010895F894FFCF54
S9030000FC
