S0190000546865726D616C5F70726F66696C696E672E7372656315
S113000071C000008EC000008CC000008AC00000D7
S113001088C0000086C0000084C0000082C00000C8
S113002080C000007EC000007CC000007AC00000D8
S113003078C0000076C0000074C0000072C00000E8
S113004070C00000E0C200006CC000006AC0000084
S113005068C0000066C0000064C0000062C0000008
S113006060C000003AC300005CC000005AC0000039
S113007058C0000056C0000054C0000052C0000028
S113008050C000004EC000004CC000004AC0000038
S113009048C0000046C0000044C0000042C0000048
S11300A040C000003EC000003CC000003AC0000058
S11300B038C0000036C0000034C0000032C0000068
S11300C030C000002EC000002CC000002AC0000078
S11300D028C0000026C0000024C0000022C0000088
S11300E020C0000011241FBECFEFD1E2DEBFCDBF80
S11300F000E00CBF12E0A0E0B2E0EAE3F8E000E0C8
S11301000BBF02C007900D92A830B107D9F723E0C6
S1130110A8E0B2E001C01D92A130B207E1F746D0D9
S11301208AC36ECFECE7F0E080818F73808387E829
S113013080937A000895ECE7F0E09081907F9083BB
S113014090818F70982B9083EAE7F0E0808180643F
S1130150808380917A0086FDFCCF80917800909115
S11301607900089584B1806184B983E88093B000F4
S113017084E08093B1001092B30008958536910510
S113018010F084E690E04FEF489F9001499F300DB6
S113019011243695279536952795ABE7B4E11ED300
S11301A09695879580958093B3000895BBDF60E8AA
S11301B075E280E090E05ED207D2D4DF7894812C9F
S11301C0912C540114D26B017C01DC01CB01881900
S11301D09909AA09BB090A97A105B10538F417C002
S11301E06C2F80911A0281D1CF5F01C0C0E0C8306A
S11301F0B8F380911A028F5F80931A028A3028F034
S113020010921A024601570102C04601570180911B
S11302100802813009F4DCD0A895D4CFAC0130E0D9
S11302208FEF9FEF16C0FA01E30FF11D20818227A3
S113023020E00CC080FF07C09695879571E0872762
S113024070EA972702C0969587952F5F283090F320
S11302503F5F361740F30895CF93DF9390E0FC019E
S1130260E050FE4F208121110BC0880F991FFC0123
S1130270E65FFD4F808191816AE070E05ED202C04A
S11302806FEF7FE7CBEBD2E085E0888384E089835E
S113029082E08A837B836C8365E0CE01BFDF8D833C
S11302A09E838BB184608BB9C0E007C0EC2FF0E073
S11302B0E554FD4F80810AD2CF5FC730B8F3E0EC3C
S11302C0F0E08081806480838091C00086FFFCCF51
S11302D08BB18B7F8BB9DF91CF910895CF93DF934F
S11302E0CBEBD2E095E09883806889836A8363E0EE
S11302F0CE0194DF8B831C828BB180648BB9809197
S1130300C00086FFFCCF8BB18B7F8BB9DF91CF917F
S11303100895CF93DF93EBEBF2E085E0808384E0F4
S1130320818380E1828320E0C3E022C0822F90E0B9
S1130330FC01E050FE4F308131110BC0880F991F32
S1130340FC01E65FFD4F808191816AE070E0F5D1A8
S113035002C06FEF7FE7EC2FF0E0E554FD4F7083B0
S1130360E1E0EC0FF0E0CE5FE554FD4F60832F5FDA
S11303702830E0F26C2F8BEB92E050DFE1E0EC0FE1
S1130380AC2FB0E0A554BD4F8C93D2E0DC0FF0E06D
S1130390E554FD4F90838BB184608BB9C0E007C0F6
S11303A0EC2FF0E0E554FD4F808190D1CF5FCD1765
S11303B0B8F3E0ECF0E08081806480838091C00039
S11303C086FFFCCF8BB18B7F8BB9DF91CF910895E2
S11303D00F931F93CF93C0910902109208021092B9
S11303E00902C43008F47DC08091E102853009F02F
S11303F078C08C2F90E0FC01E052FD4F008110E0AA
S1130400102F0027FC01E152FD4F8081082B6EEF75
S11304106C0F81EE92E002DF0817190729F0809132
S1130420E20263E05BDF5DC08091E2028430D9F4D4
S1130430E1EEF2E083819581883038F4292F30E0B1
S1130440280F311D293031052CF08091E20262E041
S113045045DF47C0913029F4883008F042C0FCDE03
S113046040C057DF3EC08091E2028630B1F5E1EE34
S1130470F2E0228130E0322F22278381282B8481ED
S113048090E0982F88274581842B2A30310501F587
S113049075DE8BB184608BB900E010E007C0F80111
S11304A0EF51FD4F808112D10F5F1F4F8C2F90E0D1
S11304B008171907A0F3E0ECF0E0808180648083E2
S11304C08091C00086FFFCCF8BB18B7F8BB909C0B4
S11304D08091E20262E002DF04C08091E20261E006
S11304E0FDDECF911F910F9108958F929F92AF924D
S11304F0BF92CF92DF92EF92FF921F93CF93DF933D
S1130500182FC62F862F17DE9C0125503109263F50
S1130510334030F0D0E0C050DE4F81E0888348C0E3
S1130520D0E0FE01E050FE4F10826C01E12CF12C72
S1130530A6E4B5E0A701960160D10F2E88248A9421
S1130540F3E09F2EA12CB12CF02DA50194012C19C0
S11305503D094E095F0904D1285E33404109510920
S1130560A8EEB3E04AD121E831E040E050E01AD1EE
S1130570BE01660F771FFB01E65FFD4F808191810D
S1130580CC0FDD1FCC0FDD1FCC0FDD1FC60FD71F17
S1130590C10FD11DCC0FDD1FC55EDD4F6881798190
S11305A0861B970B820F931F918380833983288343
S11305B0DF91CF911F91FF90EF90DF90CF90BF908C
S11305C0AF909F908F90089510928000E1E8F0E042
S11305D088E0808383EC99E090938900809388007D
S11305E082E080936F0080818360808308952FB7B9
S11305F0F8946091DB027091DC028091DD029091AD
S1130600DE022FBF08951F920F920FB60F9211248E
S11306108F939F93AF93BF938091DB029091DC0201
S1130620A091DD02B091DE020196A11DB11D80935F
S1130630DB029093DC02A093DD02B093DE02809192
S1130640E002882371F08091DF028F5F8093DF02E4
S11306508091DF02853028F081E0809308021092B7
S1130660E002BF91AF919F918F910F900FBE0F90B9
S11306701F901895DC01CB01880F991FAA1FBB1F7F
S1130680880F991FAA1FBB1F9C01AD01220F331FA6
S1130690441F551F220F331F441F551F60E074E28F
S11306A084EF90E05DD0215031093093C500209350
S11306B0C40088E98093C10086E08093C2008AB1B7
S11306C084608AB98BB18B7F8BB908959091C000F7
S11306D095FFFCCF8093C60008951F920F920FB62A
S11306E00F9211240BB60F928F939F93EF93FF9366
S11306F09091C60080910902803280F4E091090251
S113070081E08E0F80930902F0E0EF51FD4F90835A
S11307101092DF0281E08093E00204C0109209028B
S11307201092E002FF91EF919F918F910F900BBE79
S11307300F900FBE0F901F90189597FB072E16F47D
S1130740009406D077FD08D062D007FC05D03EF4B3
S1130750909581959F4F0895709561957F4F089569
S1130760A1E21A2EAA1BBB1BFD010DC0AA1FBB1FB1
S1130770EE1FFF1FA217B307E407F50720F0A21B23
S1130780B30BE40BF50B661F771F881F991F1A9490
S113079069F760957095809590959B01AC01BD01BA
S11307A0CF010895052E97FB16F400940FD057FD42
S11307B005D0D6DF07FC02D046F408C0509540951A
S11307C0309521953F4F4F4F5F4F089590958095F9
S11307D0709561957F4F8F4F9F4F0895A29FB001F1
S11307E0B39FC001A39F700D811D1124911DB29F61
S11307F0700D811D1124911D0895F0DFA59F900DAA
S1130800B49F900DA49F800D911D11240895AA1BDF
S1130810BB1B51E107C0AA1FBB1FA617B70710F0E7
S1130820A61BB70B881F991F5A95A9F78095909519
S10D0830BC01CD010895F894FFCF38
S10B083A0101010101010101AA
S9030000FC
