:1000000059C0000072C0000070C000006EC0000047
:100010006CC000006AC0000068C0000066C000003C
:1000200064C0000062C0000060C000005EC000004C
:100030005CC000005AC0000058C0000056C000005C
:1000400054C0000052C00000B9C300004EC0000000
:100050004CC000004AC0000048C0000046C000007C
:1000600044C0000042C0000040C000003EC000008C
:100070003CC000003AC0000038C0000036C000009C
:1000800034C0000031C3000030C000002EC00000AA
:100090002CC000002AC0000028C0000026C00000BC
:1000A00024C0000022C0000020C000001EC00000CC
:1000B0001CC0000011241FBECFEFD8E0DEBFCDBFB3
:1000C00011E0A0E0B1E0E4E1F9E002C005900D929A
:1000D000A830B107D9F722E0A8E0B1E001C01D9235
:1000E000A330B207E1F777D013C48ACFECE7F0E092
:1000F00080818F73808387E880937A000895ECE78E
:10010000F0E09081907F908390818F70982B908306
:10011000EAE7F0E080818064808380917A0086FD48
:10012000FCCF8091780090917900089584B184602B
:1001300084B981E2809380008BE0809381001092EB
:100140008B0010928A000895AC018436910579F4F1
:1001500084E690E09093090180930801E0E8F0E0E4
:1001600080818F7D808385B18B7F85B90895892BB0
:1001700069F41092090110920801E0E8F0E0808132
:100180008F7D808385B1846085B90895E0E8F0E0D3
:100190008081806280838FEF849F9001859F300DE6
:1001A00011243695279536952795ABE7B4E183D38F
:1001B0009695879580959095992790938B0080933D
:1001C0008A00509309014093080108958091080125
:1001D0009091090108958ADF60E875E280E090E07F
:1001E000BAD263D2A3DF7894812C912C540170D2BF
:1001F0006B017C01DC01CB0188199909AA09BB09B3
:100200000A97A105B10538F417C06C2F80911C0125
:10021000DDD1CF5F01C0C0E0C830B8F380911C01D0
:100220008F5F80931C018A3028F010921C014601D8
:10023000570102C04601570180910A01813009F43B
:10024000ECD0A895D4CFAC0130E08FEF9FEF16C073
:10025000FA01E30FF11D2081822720E00CC080FF0E
:1002600007C09695879571E0872770EA972702C0A7
:10027000969587952F5F283090F33F5F361740F3B0
:100280000895CF93DF9390E0FC01E050FF4F208171
:1002900021110BC0880F991FFC01E45FFE4F808184
:1002A00091816AE070E0B6D202C06FEF7FE7CDEBDC
:1002B000D1E085E0888384E0898382E08A837B8340
:1002C0006C8365E0CE01BFDF8D839E838BB184603C
:1002D0008BB9C0E007C0EC2FF0E0E354FE4F808103
:1002E00066D2CF5FC730B8F3E0ECF0E08081806485
:1002F00080838091C00086FFFCCF8BB18B7F8BB950
:10030000DF91CF910895CF93DF93CDEBD1E095E0CE
:100310009883806889836A8363E0CE0194DF8B834E
:100320001C828BB184608BB9C0E007C0EC2FF0E079
:10033000E354FE4F80813BD2CF5FC530B8F3E0EC91
:10034000F0E08081806480838091C00086FFFCCFD4
:100350008BB18B7F8BB9DF91CF910895CF93DF93D2
:10036000EDEBF1E085E0808384E0818380E18283AE
:1003700020E0C3E022C0822F90E0FC01E050FF4F5C
:10038000308131110BC0880F991FFC01E45FFE4FD3
:10039000808191816AE070E03DD202C06FEF7FE71B
:1003A000EC2FF0E0E354FE4F7083E1E0EC0FF0E05F
:1003B000CE5FE354FE4F60832F5F2830E0F26C2F56
:1003C0008DEB91E040DFE1E0EC0FAC2FB0E0A35407
:1003D000BE4F8C93D2E0DC0FF0E0E354FE4F9083ED
:1003E0008BB184608BB9C0E007C0EC2FF0E0E35420
:1003F000FE4F8081DCD1CF5FCD17B8F3E0ECF0E0A9
:100400008081806480838091C00086FFFCCF8BB1A7
:100410008B7F8BB9DF91CF9108950F931F93CF936B
:10042000DF93C0910B0110920A0110920B01C430AE
:1004300008F4C7C08091E301853009F0C2C08C2F59
:1004400090E0FC01EE51FE4F008110E0102F0027DC
:10045000FC01EF51FE4F8081082B6EEF6C0F83EE95
:1004600091E0F1DE0817190729F08091E40163E0BB
:100470004ADFA7C08091E4018430E9F4E3EEF1E0C3
:100480008281838194819581883038F4292F30E0EE
:10049000280F311D293031052CF08091E40162E0F4
:1004A00032DF8FC0913029F4883008F08AC0E9DE4D
:1004B00088C054DF86C08091E401863009F03FC0D7
:1004C000E3EEF1E0228130E0322F22278381282BD6
:1004D000848190E0982F88274581842BAC012130BE
:1004E000310541F54536510528F08091E40163E07E
:1004F0000ADF67C029DE8BB184608BB900E010E0B1
:1005000007C0F801ED51FE4F808151D10F5F1F4FA1
:100510008C2F90E008171907A0F3E0ECF0E0808141
:10052000806480838091C00086FFFCCF8BB18B7F7D
:100530008BB947C08091E40162E0E5DE42C0809162
:10054000E4018330D1F5E3EEF1E0828190E0982F71
:1005500088272381822B019759F538DECDEBD1E036
:1005600025E0288323E0298322E02A839B838C8350
:1005700065E0CE0168DE8D839E838BB184608BB98C
:10058000C0E007C0EC2FF0E0E354FE4F80810FD1B4
:10059000CF5FC730B8F3E0ECF0E080818064808307
:1005A0008091C00086FFFCCF8BB18B7F8BB909C0D7
:1005B0008091E40162E0A7DE04C08091E40161E083
:1005C000A2DEDF91CF911F910F9108958F929F929C
:1005D000AF92BF92CF92DF92EF92FF921F93CF9391
:1005E000DF93182FC62F862F8ADD9C0125503109F5
:1005F000263F334030F0D0E0C050DF4F81E08883A9
:1006000048C0D0E0FE01E050FF4F10826C01E12CA9
:10061000F12CA6E4B5E0A70196015CD10F2E882449
:100620008A94F3E09F2EA12CB12CF02DA50194010A
:100630002C193D094E095F0900D1285E334041095C
:100640005109A8EEB3E046D121E831E040E050E0A6
:1006500016D1BE01660F771FFB01E45FFE4F80815C
:100660009181CC0FDD1FCC0FDD1FCC0FDD1FC60F1E
:10067000D71FC10FD11DCC0FDD1FC35EDE4F6881B8
:100680007981861B970B820F931F91838083398317
:100690002883DF91CF911F91FF90EF90DF90CF9053
:1006A000BF90AF909F908F90089510929000E1E9D5
:1006B000F0E088E0808383EC99E090939900809348
:1006C000980082E080937100808183608083089528
:1006D0002FB7F8946091DD017091DE018091DF0108
:1006E0009091E0012FBF08951F920F920FB60F92C5
:1006F00011248F939F93AF93BF938091DD019091CD
:10070000DE01A091DF01B091E0010196A11DB11DB4
:100710008093DD019093DE01A093DF01B093E001AF
:100720008091E201882371F08091E1018F5F8093D5
:10073000E1018091E101853028F081E080930A0198
:100740001092E201BF91AF919F918F910F900FBED8
:100750000F901F901895DC01CB01880F991FAA1FDD
:10076000BB1F880F991FAA1FBB1F9C01AD01220F41
:10077000331F441F551F220F331F441F551F60E0B6
:1007800074E284EF90E059D0215031093093C500D4
:100790002093C40088E98093C10086E08093C20062
:1007A0008AB184608AB98BB18B7F8BB9089590919F
:1007B000C00095FFFCCF8093C60008951F920F9252
:1007C0000FB60F9211248F939F93EF93FF93909105
:1007D000C60080910B01803280F4E0910B0181E032
:1007E0008E0F80930B01F0E0ED51FE4F908310923D
:1007F000E10181E08093E20104C010920B011092AC
:10080000E201FF91EF919F918F910F900FBE0F909A
:100810001F90189597FB072E16F4009406D077FDCD
:1008200008D062D007FC05D03EF4909581959F4F8B
:100830000895709561957F4F0895A1E21A2EAA1B25
:10084000BB1BFD010DC0AA1FBB1FEE1FFF1FA21780
:10085000B307E407F50720F0A21BB30BE40BF50B7D
:10086000661F771F881F991F1A9469F76095709506
:10087000809590959B01AC01BD01CF010895052E97
:1008800097FB16F400940FD057FD05D0D6DF07FC78
:1008900002D046F408C050954095309521953F4FC1
:1008A0004F4F5F4F089590958095709561957F4F5C
:1008B0008F4F9F4F0895A29FB001B39FC001A39F88
:1008C000700D811D1124911DB29F700D811D112489
:1008D000911D0895F0DFA59F900DB49F900DA49FEA
:1008E000800D911D11240895AA1BBB1B51E107C067
:1008F000AA1FBB1FA617B70710F0A61BB70B881FB0
:10090000991F5A95A9F780959095BC01CD0108953E
:04091000F894FFCF89
:080914000101010101010101D3
:00000001FF
